:100000000080001071010000E9010000F101000012
:10001000F9010000010200000902000000000000D8
:100020000000000000000000000000003917000080
:1000300019020000000000003118000071180000D3
:1000400031020000310200003102000031020000E4
:1000500031020000310200003102000031020000D4
:1000600031020000310200003102000031020000C4
:1000700031020000310200003102000031020000B4
:1000800031020000310200003102000031020000A4
:100090003102000031020000310200003102000094
:1000A0003102000031020000310200003102000084
:1000B0003102000031020000310200003102000074
:1000C000310200003102000031020000E021000096
:1000D000000000106C080000E021000000C00720B4
:1000E000000000006C0800104401000000C0072060
:1000F0000000000080B489B000AFF860B9607A6099
:10010000BB68FB61FB68BB6100237B610AE0FB69A4
:100110001A1DFA61BA69111DB96112681A607B690A
:1001200004337B617A697B689A42F0D300BF24373D
:10013000BD4680BC704700BF80B485B000AF78601A
:1001400039607B68FB600023BB6007E0FB681A1D19
:10015000FA6000221A60BB680433BB60BA683B686F
:100160009A42F3D300BF1437BD4680BC704700BF2E
:1001700080B584B000AF194BFB6013E0FB681A1D1B
:10018000FA601B68BB60FB681A1DFA601B687B6025
:10019000FB681A1DFA601B683B603A687968B868AA
:1001A000FFF7A8FFFB680E4A9342E7D30DE0FB6818
:1001B0001A1DFA601B687B60FB681A1DFA601B68D9
:1001C0003B6039687868FFF7B7FFFB68054A9342E0
:1001D000EDD300F0AFFA00F0F1F8FEE7CC0000003C
:1001E000E4000000F400000080B400AFFEE700BFB0
:1001F00080B400AFFEE700BF80B400AFFEE700BFF1
:1002000080B400AFFEE700BF80B400AFFEE700BFE0
:1002100080B400AFFEE700BF80B400AFFEE700BFD0
:1002200080B400AFFEE700BF80B400AFFEE700BFC0
:1002300080B400AFFEE700BFFFFFFFFFFFFFFFFF3F
:10024000FFFFFFFFFFFFFFFFFFFFFFFFFFFFFFFFBE
:10025000FFFFFFFFFFFFFFFFFFFFFFFFFFFFFFFFAE
:10026000FFFFFFFFFFFFFFFFFFFFFFFFFFFFFFFF9E
:10027000FFFFFFFFFFFFFFFFFFFFFFFFFFFFFFFF8E
:10028000FFFFFFFFFFFFFFFFFFFFFFFFFFFFFFFF7E
:10029000FFFFFFFFFFFFFFFFFFFFFFFFFFFFFFFF6E
:1002A000FFFFFFFFFFFFFFFFFFFFFFFFFFFFFFFF5E
:1002B000FFFFFFFFFFFFFFFFFFFFFFFFFFFFFFFF4E
:1002C000FFFFFFFFFFFFFFFFFFFFFFFFFFFFFFFF3E
:1002D000FFFFFFFFFFFFFFFFFFFFFFFFFFFFFFFF2E
:1002E000FFFFFFFFFFFFFFFFFFFFFFFFFFFFFFFF1E
:1002F000FFFFFFFFFFFFFFFFFFFFFFFFFFFFFFFF0E
:1003000090B585B000AF7860154B1B68002B02D10B
:10031000134B144A1A60124B1B68FB60EFF30883FF
:100320001C462346BB600E4B1A687B681A44BB68A8
:100330009A420AD919220C49022000F019F80B4BF5
:100340000C221A604FF0FF3306E0054B1A687B68F9
:100350001344034A1360FB6818461437BD4690BD2A
:100360006C080010B0090010A0210000AC090010BA
:1003700080B487B000AFF860B9607A60FB68013B79
:10038000012B0DD800237B6105E0BB680133BB6006
:100390007B6901337B617A697B689A42F5DB05E012
:1003A000054B09221A604FF0FF3300E07B681846C6
:1003B0001C37BD4680BC7047AC09001080B500AF4B
:1003C00000F006F800F026F800F052FDFEE700BF4E
:1003D00080B500AF00F0FCF80B4800F05DFA082192
:1003E000094800F0BDFA094800F056FA062107480E
:1003F00000F0B6FA064800F04FFA0221044800F077
:10040000AFFA00BF80BD00BF000000100C0000105C
:100410001800001080B584B004AF002303930023BC
:1004200002930023019301230093194B8022194961
:10043000194800F031FC00230393002302930023AA
:10044000019301230093154B80221249124800F0BA
:1004500023FC002303930023029300230193012331
:1004600000930F4B80220B490B4800F015FC002332
:10047000039300230293002301930123009300239D
:1004800080220849084800F007FC00BFBD4680BD37
:1004900000000010BC210000C90800000C00001082
:1004A00018000010CC210000AD04000080B582B01F
:1004B00000AF3F4B7B600221786800F051FA00F0FA
:1004C0008FFD02463B4B1A603B4B1B78002B3ED105
:1004D0003A4B1B78012B09D0022B0DD0002B11D1E8
:1004E000334B7B60354B01221A700FE0344B7B603D
:1004F000324B02221A7009E0324B7B602F4B0022F4
:100500001A7003E02D4B00221A7050E0786800F05A
:10051000B3FA0346042B08D0062B0BD0022B0ED1C6
:10052000294B42F210721A600DE0274B43F69822D5
:100530001A6008E0244B44F620621A6003E01E4B68
:1005400001221A7033E0786800F022FA20E078681F
:1005500000F092FA0346062B09D0082B02D0042B98
:100560000AD00EE0184B43F698221A600DE0164BA5
:1005700042F210721A6008E0134B41F288321A609E
:1005800003E00D4B00221A7011E0786800F03AFA8F
:1005900000F026FD0246074B1A600B4B1B680B4A06
:1005A000A2FB03235B091946024800F015FC8BE708
:1005B0001800001070080010740800107508001072
:1005C000000000100C000010780800101F85EB518F
:1005D00080B400AF514BD3F888301B0E03F00303F7
:1005E000032B63D14D4BD3F80C3103F00303032BE2
:1005F00000F2908001A252F823F000BF0D06000027
:1006000043060000790600000D060000434BD3F8B6
:100610008830C3F30E030133414A02FB03F23F4B20
:10062000D3F888301B0CDBB20133B2FBF3F23B4B47
:10063000D3F80431DBB20133B2FBF3F3394A136070
:1006400068E0364BD3F88830C3F30E030133364AE3
:1006500002FB03F2314BD3F888301B0CDBB20133C1
:10066000B2FBF3F22D4BD3F80431DBB20133B2FB12
:10067000F3F32C4A13604DE0284BD3F88830C3F3D2
:100680000E0301331A04254BD3F888301B0CDBB260
:100690000133B2FBF3F2214BD3F80431DBB2013367
:1006A000B2FBF3F31F4A136000BF33E01B4BD3F8D8
:1006B0000C3103F00303032B2CD801A252F823F0D2
:1006C000D1060000E7060000FD060000D10600008C
:1006D000124BD3F80431DBB20133144AB2FBF3F30B
:1006E000104A136016E00D4BD3F80431DBB201332E
:1006F0000F4AB2FBF3F30B4A13600BE0074BD3F83E
:100700000431DBB201334FF40042B2FBF3F3054A8C
:10071000136000BF00BFBD4680BC704700C00F40E3
:1007200000127A002400001000366E0100093D001E
:10073000001BB70080B483B000AF4FF040737B6004
:100740004FF440733B60504B2022C3F8A0214E4B26
:10075000D3F8A03103F02003002B07D000BF4A4B91
:10076000D3F8A03103F04003002BF8D0464B03220E
:10077000C3F80421444B0022C3F8A821424B0022B5
:10078000C3F8AC21404B0122C3F80C213E4B3F4A39
:10079000C3F884203C4BAA22C3F88C203A4B552244
:1007A000C3F88C20384B0122C3F88020364BAA2294
:1007B000C3F88C20344B5522C3F88C2000BF324B39
:1007C000D3F8883003F08063002BF8D02E4B03223F
:1007D000C3F880202C4BAA22C3F88C202A4B552228
:1007E000C3F88C2000BF284BD3F888207B681A40C0
:1007F0007B689A42F7D1244B2322C3F8A420224BD2
:10080000AA22C3F8AC20204B5522C3F8AC201E4BC3
:100810000122C3F8A0201C4BAA22C3F8AC201A4B1B
:100820005522C3F8AC2000BF174BD3F8A83003F40F
:100830008063002BF8D0144B0322C3F8A020124B86
:10084000AA22C3F8AC20104B5522C3F8AC2000BF3D
:100850000D4BD3F8A8203B681A403B689A42F7D169
:10086000094B0B4AC3F8C420074B0022C3F8C82128
:10087000054B43F23A021A60064B00229A6000BF11
:100880000C37BD4680BC704700C00F4063000500B8
:10089000DE87280400ED00E080B582B000AF78600C
:1008A0007B6818787B6859780023012200F0D4F91E
:1008B0007B681A787B685B781946104600F0E8F888
:1008C00000BF0837BD4680BD80B584B000AF7860FA
:1008D0007B68FB6000F084FB0246FB689A60FB6863
:1008E0009B79002B02D1FB6802229A71FB689A79EE
:1008F000FB68DA71FB681A78FB685B78194610466A
:1009000000F0E6F818E0FB681A78FB685B78194697
:10091000104600F0FDF8FB68DB79013BDAB2FB68BA
:10092000DA7100F05DFB0246FB689A60FB680833F1
:100930000221184600F050FAFB68DB79002BE2D167
:1009400000F04EFB0246FB689A60FB680833072103
:10095000184600F041FAFB689A79FB68DA71D1E732
:1009600080B582B000AF78600B46FB707B680022D8
:10097000DA717B68FA789A717B681A787B685B78A1
:100980001946104600F0A4F800BF0837BD4680BDE8
:1009900080B582B000AF78607B680022DA717B6836
:1009A0009B79023B062B21D801A252F823F000BF0D
:1009B000CD090000ED090000D5090000ED09000097
:1009C000DD090000ED090000E50900007B68042254
:1009D0009A710BE07B6806229A7107E07B68082217
:1009E0009A7103E07B6802229A7100BF7B681A78D3
:1009F0007B685B781946104600F06AF800BF08373C
:100A0000BD4680BD80B582B000AF78607B680022B3
:100A1000DA717B689B79023B062B21D801A252F840
:100A200023F000BF590A0000610A0000510A0000CB
:100A3000610A0000490A0000610A0000410A000042
:100A40007B6806229A710BE07B6804229A7107E0AA
:100A50007B6802229A7103E07B6808229A7100BFCA
:100A60007B681A787B685B781946104600F030F88E
:100A700000BF0837BD4680BD80B483B000AF78604A
:100A80007B689B7918460C37BD4680BC704700BF19
:100A900080B483B000AF03460A46FB711346BB71B6
:100AA000FB795B0103F1005303F51C23FA79520132
:100AB00002F1005202F51C221168BA79012000FAF5
:100AC00002F20A431A6000BF0C37BD4680BC704773
:100AD00080B483B000AF03460A46FB711346BB7176
:100AE000FB795B0103F1005303F51C23FA795201F2
:100AF00002F1005202F51C229169BA79012000FA34
:100B000002F20A439A6100BF0C37BD4680BC7047B1
:100B100080B483B000AF03460A46FB711346BB7135
:100B2000FB795B0103F1005303F51C23FA795201B1
:100B300002F1005202F51C225169BA79012000FA33
:100B400002F24A405A6100BF0C37BD4680BC704774
:100B500080B487B000AF0346FB710B46BB711346F0
:100B60007B71BB797B61FB795B003B61184BFB6060
:100B70007B690F2B05D97B69103B7B613B69013396
:100B80003B613B699B00FA6813443A699200F9683B
:100B90000A4411687A695200032000FA02F2D24333
:100BA0000A401A603B699B00FA6813443A69920054
:100BB000F9680A44116878797A69520000FA02F2F9
:100BC0000A431A6000BF1C37BD4680BC704700BF97
:100BD00000C0024080B487B000AF0346FB710B46F3
:100BE000BB7113467B71BB797B61FB795B003B6119
:100BF000184BFB607B690F2B05D97B69103B7B6130
:100C00003B6901333B613B699B00FA6813443A69D5
:100C10009200F9680A4411687A695200032000FAC8
:100C200002F2D2430A401A603B699B00FA681344FF
:100C30003A699200F9680A44116878797A69520031
:100C400000FA02F20A431A6000BF1C37BD4680BC9E
:100C5000704700BF40C0024090B583B000AF04466B
:100C6000084611461A462346FB710346BB710B46E4
:100C70007B7113463B713A79B979FB791846FFF7D6
:100C800067FF7A79B979FB791846FFF7A3FF00BFB0
:100C90000C37BD4690BD00BF80B58AB002AFF8608A
:100CA000B9603B601346FB80FB88396B184600F047
:100CB000D9FBB861BB69002B6AD0BB691A6BFB8892
:100CC00003F18043013B9B0013447B617B6923F06C
:100CD00007037B61FB8800937B6BBA6AB968B869CC
:100CE00000F0C2FA3A68F968786900F0F5FC02464B
:100CF000BB691A60FB6A002B02D0FB6ABA691A60F2
:100D000000F064FD2E4B1B6801332D4A13602D4B00
:100D10001B68002B09D12B4ABB691360284B1B6849
:100D2000012B0FD100F0ECFA0CE0274B1B68002BD5
:100D300008D1244B1B68DA6ABB6A9A4202D8214A5E
:100D4000BB691360214B1B680133204A13601F4BA2
:100D50001A68BB699A64BB69DA6A1D4B1B689A42C0
:100D600003D9BB69DB6A1A4A1360BB69DA6A1346A6
:100D70009B0013449B00174A1A44BB69043319466D
:100D8000104600F023FC0123FB6100F031FD02E07E
:100D90004FF0FF33FB61FB69012B0BD10A4B1B6842
:100DA000002B07D0074B1B68DA6ABB6A9A4201D254
:100DB00000F0FCFCFB6918462037BD4680BD00BF33
:100DC000540900107C08001060090010740900101C
:100DD0005C0900108008001080B586B000AF786014
:100DE000396000237B6100F06FF81F4B1B683B618B
:100DF0007B681A683B681344FB607B681A683B6930
:100E00009A420BD97B681A68FB689A4211D9FA6832
:100E10003B699A420DD901237B610AE07B681A681D
:100E2000FB689A4203D8FA683B699A4201D90123C8
:100E30007B617B68FA681A607B69002B08D00B4BDA
:100E40001B680433184600F01DFCF86800F0D4FA63
:100E500000F048F8B860BB68002B01D100F0A6FC98
:100E600000BF1837BD4680BD580900107C0800102F
:100E700080B586B004AF00230393002302930023C0
:100E8000019300230093002380220B490B48FFF7B6
:100E900003FF78607B68012B09D100F0BBFC084B95
:100EA00001221A60074B00221A6000F063FC00BFA9
:100EB0000837BD4680BD00BFD821000045120000A4
:100EC000600900105809001080B400AF044B1B6883
:100ED0000133034A136000BFBD4680BC704700BFAA
:100EE0006409001080B582B000AF00237B6000F081
:100EF0006DFC334B1B68013B314A1360304B1B6860
:100F0000002B56D12F4B1B68002B52D02FE02E4BBD
:100F1000DB68DB683B603B681833184600F0B2FBC7
:100F20003B680433184600F0ADFB3B68DA6A274B98
:100F30001B689A4203D93B68DB6A244A13603B680A
:100F4000DA6A13469B0013449B00214A1A443B680B
:100F500004331946104600F039FB3B68DA6A1D4B32
:100F60001B68DB6A9A4202D31B4B01221A60164BA4
:100F70001B68002BCBD1194B1B68002B11D00CE048
:100F800000F040F80346002B02D0134B01221A60F8
:100F9000124B1B68013B114A1360104B1B68002B5E
:100FA000EED10D4B1B68012B03D101237B6000F0B8
:100FB000FDFB00F01DFC7B6818460837BD4680BD70
:100FC0006409001054090010140900105C09001095
:100FD000800800107C0800106C09001068090010DF
:100FE00080B582B000AF00F0F1FB054B1B687B6061
:100FF00000F0FEFB7B6818460837BD4680BD00BF89
:101000005809001080B586B000AF00237B61544BB7
:101010001B68002B40F09180524B1B680133514AF2
:101020001360504B1B683B613B69002B21D14E4B39
:101030001B68FB604D4B1B684B4A13604B4AFB68B7
:1010400013604B4B1B680133494A1360464B1B68C6
:101050001B68002B04D1474B4FF0FF321A6008E0A9
:10106000414B1B68DB68DB68BB60BB685B68414A5F
:101070001360404B1B683A699A4249D33A4B1B684C
:101080001B68002B04D13B4B4FF0FF321A603FE04E
:10109000354B1B68DB68DB68BB60BB685B687B60EB
:1010A0003A697B689A4203D2324A7B6813602FE028
:1010B000BB680433184600F0E5FABB689B6A002B56
:1010C00004D0BB681833184600F0DCFABB68DA6A53
:1010D000294B1B689A4203D9BB68DB6A264A136016
:1010E000BB68DA6A13469B0013449B00234A1A44E8
:1010F000BB6804331946104600F068FABB68DA6A28
:101100001F4B1B68DB6A9A42B8D301237B61B5E7AA
:101110001B4B1B68DA6A194913469B0013449B005A
:101120000B441B68012B01D901237B61154B1B6804
:10113000002B09D100F018FA06E0124B1B680133AE
:10114000104A136000F010FA0F4B1B68002B01D0FF
:1011500001237B617B6918461837BD4680BD00BFFF
:1011600064090010580900100C0900101009001043
:1011700070090010280000105C09001080080010A1
:101180007C080010680900106C09001080B582B05E
:1011900000AF274B1B68002B03D0264B01221A609F
:1011A00042E0244B00221A60234B1B681A68224B32
:1011B0001B681B6B9A420ED81F4B1A681E4B1B688C
:1011C00034331946104600F0C7F904E01B4B1B6886
:1011D000013B1A4A1360194B1A68194913469B00C0
:1011E00013449B000B441B68002BEFD0134B1A6871
:1011F00013469B0013449B00114A13447B607B6899
:101200005B685A687B685A607B685A687B680833F9
:101210009A4204D17B685B685A687B685A607B6835
:101220005B68DB68044A136000BF0837BD4680BDB9
:10123000640900106C0900107C0800105C090010A3
:101240008008001080B582B000AF786000F098F898
:10125000044B1B68012B01D900F0A8FA00F074F9C7
:10126000F4E700BF8008001080B586B000AFF860DA
:10127000B9607A603B6000237B6114E0BA687B69E7
:10128000134493F90010FA687B69134434330A4617
:101290001A70BA687B69134493F90030002B06D0AA
:1012A0007B6901337B617B69132BE7D900E000BFC9
:1012B000FB68002283F847207B68042B01D90423B4
:1012C0007B60FB687A68DA62FB687A681A65FB689B
:1012D0000433184600F06EF9FB681833184600F026
:1012E00069F9FB68FA681A617B68C3F10502FB685B
:1012F0009A61FB68FA685A6200BF1837BD4680BD24
:1013000080B582B000AF00237B600CE07A681346A2
:101310009B0013449B00124A1344184600F02AF91C
:101320007B6801337B607B68042BEFD90D4800F0AC
:1013300021F90D4800F01EF90C4800F01BF90C488B
:1013400000F018F90B4800F015F90B4B054A1A602C
:101350000A4B054A1A6000BF0837BD4680BD00BF72
:1013600080080010E4080010F808001014090010AC
:1013700028090010400900100C0900101009001085
:1013800080B582B000AF28E0FFF79EFD174B1B68C9
:10139000002B0CBF01230023DBB27B60FFF7A2FD13
:1013A0007B68002B19D100F011FA104BDB68DB6869
:1013B0003B603B680433184600F064F90C4B1B6833
:1013C000013B0B4A13600B4B1B68013B094A13603E
:1013D00000F00EFA386800F077F8064B1B68002B17
:1013E000D2D100BF0837BD4680BD00BF280900101C
:1013F000540900103C09001080B582B000AF78603D
:10140000134B1B687A685A60124B1B687A689A42C1
:1014100009D2114B1A680E4B1B680433194610464B
:1014200000F0F8F810E00D4B1A68094B1B68043304
:101430001946104600F0EEF8094B1B687A689A428C
:1014400002D2074A7B68136000BF0837BD4680BDE3
:101450007C08001058090010100900100C09001039
:101460002800001080B584B000AF03463960FB80CF
:10147000542000F039F8F860FB68002B1ED03B6860
:10148000002B06D1FB889B00184600F02DF8034680
:1014900000E03B68FA681363FB681B6B002B05D107
:1014A000F86800F039F80023FB6007E0FB68186B70
:1014B000FB889B001A46A52100F0D4FCFB68184667
:1014C0001037BD4680BD00BF80B582B000AF7860E8
:1014D0007B681B6B184600F01FF8786800F01CF85A
:1014E00000BF0837BD4680BD80B584B000AF7860CE
:1014F000FFF7EAFC786800F0F9F90346FB60FFF7B4
:10150000F1FCFB68002B01D100F018F8FB681846CD
:101510001037BD4680BD00BF80B582B000AF786097
:101520007B68002B06D0FFF7CFFC786800F0E6F967
:10153000FFF7D8FC00BF0837BD4680BD80B500AFBF
:1015400000F068F9FEE700BF80B400AF30BF00BF15
:10155000BD4680BC704700BF80B582B000AF7860E8
:10156000396000F057F9FEE780B500AF00F0AEF942
:1015700000BF80BD80B483B000AF78607B6803F1AA
:1015800008027B685A607B684FF0FF329A607B6884
:1015900003F108027B68DA607B6803F108027B686C
:1015A0001A617B6800221A6000BF0C37BD4680BC00
:1015B000704700BF80B483B000AF78607B680022C2
:1015C0001A6100BF0C37BD4680BC704780B485B03F
:1015D00000AF786039607B685B68FB603B68FA68E5
:1015E0005A60FB689A683B689A60FB689B683A6837
:1015F0005A60FB683A689A603B687A681A617B684F
:101600001B685A1C7B681A6000BF1437BD4680BC3B
:10161000704700BF80B485B000AF786039603B6828
:101620001B68BB60BB68B3F1FF3F03D17B681B69DC
:10163000FB600CE07B680833FB6002E0FB685B68E2
:10164000FB60FB685B681A68BB689A42F6D9FB6866
:101650005A683B685A603B685B683A689A603B68C6
:10166000FA689A60FB683A685A603B687A681A615F
:101670007B681B685A1C7B681A6000BF1437BD4624
:1016800080BC704780B485B000AF78607B685B68D1
:101690007A6892689A607B689B687A6852685A6038
:1016A0007B681B69FB60FB685A687B689A4203D1C0
:1016B0007B689A68FB685A607B6800221A61FB6845
:1016C0001B685A1EFB681A60FB681B6818461437B3
:1016D000BD4680BC704700BF80B485B000AFF860E5
:1016E000B9607A60FB68043BFB60FB684FF0807276
:1016F0001A60FB68043BFB60BA68FB681A60FB6811
:10170000043BFB60084AFB681A60FB68143BFB6003
:101710007A68FB681A60FB68203BFB60FB68184630
:101720001437BD4680BC70472D17000080B500AF50
:1017300000F070F8FEE700BF064B19680868B0E8D3
:10174000F00F80F309884FF0000080F311884EF00D
:101750000D0E70477C08001000BF00BF04480068F1
:10176000006880F3088862B600DF00BF00BF000099
:1017700008ED00E080B500AF0A4A0A4B1B6843F44D
:1017800078031360074A074B1B6843F078431360E4
:1017900000F082F8044B00221A60FFF7DFFF0023FD
:1017A000184680BD20ED00E02C00001080B400AF92
:1017B000054B4FF080521A60BFF34F8FBFF36F8F0E
:1017C00000BFBD4680BC704704ED00E080B500AFAF
:1017D00000F020F8054B1B680133044A1360BFF387
:1017E0004F8FBFF36F8F00BF80BD00BF2C00001074
:1017F00080B500AF064B1B68013B054A1360044BE4
:101800001B68002B02D1002000F00EF800BF80BD45
:101810002C000010EFF311804FF0280181F31188A4
:1018200070470023184600BF80F31188704700BF3F
:10183000EFF309800C4B1A6820E9F00F10602DE9D6
:1018400008404FF0280080F31188FFF79FFC4FF00D
:10185000000080F31188BDE8084019680868B0E806
:10186000F00F80F3098870477C08001000BF00BFAC
:1018700080B500AFFFF7CEFFFFF7C4FB0346002B98
:1018800003D0044B4FF080521A600020FFF7CCFFCA
:1018900000BF80BD04ED00E080B400AF074A084BF4
:1018A0001B680849A1FB0313DB08013B1360064BCF
:1018B00007221A6000BFBD4680BC704714E000E0FC
:1018C00024000010CDCCCCCC10E000E080B400AF00
:1018D00072B64FF08043AA221A724FF0804355220D
:1018E0001A7262B600BFBD4680BC7047024B01460B
:1018F000186800F00BB800BF68080010024B0146E2
:10190000186800F061BB00BF680800102DE9F04FB7
:1019100001F10B05162D83B0064640F2A08035F08C
:10192000070500F1C080A94200F2BD8000F0E8FA8E
:10193000B5F5FC7FC0F090826B0A00F0BB80042BF1
:1019400000F27781A80900F1390E4FEA4E013830D4
:10195000BE4F07EB81014C680839A14207D1AEE0C8
:10196000002A80F2AE80E468A14200F0A88063689B
:1019700023F003035A1B0F2AF2DDB4493C6901F13D
:10198000080E744500F0A881636823F003035A1B16
:101990000F2A00F38E81002AC1F814E0C1F810E08C
:1019A00080F29380B3F5007F80F05C81DB084A68A9
:1019B0004FEAA3094FF0010C013351F833800CFAC0
:1019C00009F901EBC30C49EA0202ACF1080CC4F8B6
:1019D0000CC0C4F808804A6041F83340C8F80C4095
:1019E000831001249C4094427CD8144206D120F0FC
:1019F00003006400144200F10400FAD007EBC009B0
:101A0000CC468046DCF80C108C4507D166E1002AF4
:101A100080F27481C9688C4500F060814B6823F0C6
:101A200003035A1B0F2AF2DD0C46CB6854F808CF8B
:101A300045F00108C1F804800D4442F00101CCF8E2
:101A40000C303046C3F808C07D613D61C5F80CE03C
:101A5000C5F808E06960AA5000F054FA1FE01029A8
:101A600021D800F04DFA102506230220774F07EB0E
:101A700083035C68A3F10802944200F03881636834
:101A8000E16823F0030323445A68A56842F0010289
:101A9000E96030468D605A6000F034FA0834204620
:101AA00003B0BDE8F08F002420460C23336003B060
:101AB000BDE8F08F80214FF0400E3F2048E7704690
:101AC0005BE723445A68E168DFE723445A683046FD
:101AD00042F001025A60083400F014FA204603B0C4
:101AE000BDE8F08FBC68636823F00308A84504D301
:101AF000C5EB08030F2B00F38C80554BDFF860918A
:101B00001A68D9F800302A44013304EB080A00F0BF
:101B1000608102F580520F3222F47F6222F00F02C0
:101B200011463046019200F0EFF9B0F1FF3F8346D5
:101B3000019A00F05881824500F2FC80454BDA455D
:101B400019681144196000F05381D9F80000DFF8DA
:101B500010E101301BBFCAEB0B0A5144CEF800B0B4
:101B600019601BF0070100F01781C1F10800C1F5F1
:101B70008051834408315A44C2F30B02C2EB01097D
:101B800049463046019300F0BFF9431C019B00F029
:101B90003F81CBEB00024A4442F001021968BC428B
:101BA0004944C7F808B01960CBF80420DFF8A490C6
:101BB00016D0B8F10F0F40F2FD806268A8F10C0357
:101BC00023F0070302F00102E0184FF0050E1A435C
:101BD0000F2B6260C0F804E0C0F808E000F21C813E
:101BE0001D4BBC681A68914288BF19601B4B1A686C
:101BF0009142626888BF196022F003029542A2EB0D
:101C0000050301D80F2B04DC304600F07BF90024DB
:101C100045E745F0010243F0010325446260304688
:101C2000BD6008346B6000F06DF9204603B0BDE87C
:101C3000F08F142B71D9542B00F2A480280B00F1E3
:101C40006F0E4FEA4E016E3082E600BF300000108A
:101C500080090010840900107C0900107809001028
:101C60003C0400105A0A042A5ED9142A00F2B380F8
:101C700002F15C0149005B3207EB810C57F821103F
:101C8000ACF1080C8C45DFF8D88100F088804A68F8
:101C900022F00302934202D289688C45F7D1D1F831
:101CA0000CC07A68C4F80CC0A160CCF80840CC60C5
:101CB00096E645F0010742F001032544676030468F
:101CC0004D610D61C5F80CE0C5F808E06B60AA50E5
:101CD000083400F017F9E2E64A6881E608F10108E5
:101CE00018F0030F0CF1080C7FF48CAE30E0DC68C8
:101CF000A34208BF02303FF440AEC0E60C460B449E
:101D00005A68C96854F8085F42F001025A603046C8
:101D1000E9608D6000F0F6F8C1E603F15C0E03F1B6
:101D20005B004FEA4E0113E69A0902F139014900BE
:101D30003832A1E7BC424A4B3FF400AF9C6862686E
:101D400022F003025AE759F80839994540F0828099
:101D500010F0030F00F1FF30F5D17B6823EA040394
:101D60007B6064009C423FF6BDAE002C3FF4BAAEEF
:101D70001C4240467FF442AE64001C4200F1040065
:101D8000FAD03BE6B3F5AA7F18D8E80B00F1780E3D
:101D90004FEA4E017730DBE54FF48051EBE601214D
:101DA000D8F80430921001FA02F21A43C8F804205D
:101DB000614677E70123CBF8043025E740F254521F
:101DC000934220D8A80C00F17D0E4FEA4E017C30E2
:101DD000BEE51032A4E6542A26D81A0B02F16F0190
:101DE00049006E3248E7BC68626822F0030205E7EA
:101DF000CAF30B0000287FF4A8AE4244BB6842F04F
:101E000001025A60ECE6FE214FF07F0E7E209FE536
:101E100001224FF00009C1E604F10801304600F04C
:101E2000D3F8D9F80010DBE6B2F5AA7F05D8DA0BB3
:101E300002F17801490077321EE740F254518A429C
:101E400005D89A0C02F17D0149007C3214E7FE218D
:101E50007E2211E77B6884E7E808431C5B0005E607
:101E60003000001070B4840746D0541E002A41D0C0
:101E7000CDB2034602E0621EE4B3144603F8015BF0
:101E80009A07F8D1032C2ED9CDB245EA05250F2C9F
:101E900045EA054519D9264603F11002103E0F2EDA
:101EA00042F8105C42F80C5C42F8085C42F8045CB2
:101EB00002F11002F2D8A4F1100222F00F0204F095
:101EC0000F041032032C13440DD91E462246043A47
:101ED000032A46F8045BFAD8221F22F003020432D8
:101EE000134404F003042CB1C9B21C4403F8011BD1
:101EF000A342FBD170BC704714460346C2E700BF43
:101F0000704700BF704700BF38B5074C0023054637
:101F100008462360FEF7F4F9431C00D038BD23685F
:101F2000002BFBD02B6038BDAC090010F8B50C4677
:101F3000224F0646FFF7E4FFBB685D6825F0030506
:101F4000291B01F6EF7121F47F6121F00F01A1F54A
:101F50008054B4F5805F07DB00213046FFF7D4FFE3
:101F6000BB682B44984204D03046FFF7CBFF0020DB
:101F7000F8BD61423046FFF7C7FF01300DD0104B6E
:101F8000BA6819682D1B45F001053046091B5560DC
:101F90001960FFF7B7FF0120F8BD00213046FFF7B9
:101FA000B3FFBA68831A0F2BDEDD064C04492468A0
:101FB00043F00103001B53600860D5E730000010B8
:101FC000840900103C040010002945D02DE9F0419F
:101FD0000D468046FFF794FF55F8047C6A49A5F149
:101FE000080427F00103E2188E685068B24220F01E
:101FF000030062D0FE0750600BD455F8087C01F155
:10200000080EE41BA5683B4475456FD0E768EF6098
:10201000BD6015186D68ED0742D543F0010262609E
:10202000E350B3F5007F18D2DB0848689D10012209
:10203000013351F8337002FA05F501EBC30228436E
:10204000083AE260A760486041F83340FC604046CF
:10205000BDE8F041FFF756BF70475A0A042A53D82B
:102060009A0902F139077F0002F1380501EB870078
:1020700051F827200838904243494DD0516821F04B
:1020800003018B4202D292689042F7D1D068E0609F
:10209000A2608460D4604046BDE8F041FFF732BFE3
:1020A00095683A4F0344BD423FD0D06843F00102E7
:1020B000E86085606260E350B3E7FF07034407D43C
:1020C00055F8085C641BE268A0682B44C26090600D
:1020D0002F4A43F001001268606093428C60B6D3CF
:1020E0002C4B40461968FFF721FFB0E711184968EB
:1020F000C90744D491680344D26843F00100CA6020
:1021000091606060E350A2E7142A17D802F15C07DF
:102110007F0002F15B05A9E7AA104B68012505FACB
:1021200002F213434B600246B1E743F001024C61F7
:102130000C61E560A5606260E35088E7542A06D828
:102140001A0B02F16F077F0002F16E058EE7B2F500
:10215000AA7F06D8DA0B02F178077F0002F1770533
:1021600084E740F25450824206D89A0C02F17D076F
:102170007F0002F17C0579E7FE277E2576E743F0B4
:1021800001026260E35062E7300000103800001086
:1021900038040010800900106578697400000000A0
:1021A0004865617020616E6420737461636B2063A5
:1021B0006F6C6C6973696F6E0A00FFFF7654617310
:1021C0006B4C656453744F6B000000007654617370
:1021D0006B5F5465737400FF49444C4500FFFFFF7B
:1021E000001600000000000000000000031A0000BC
:1021F00000000000000000000319000000000000C3
:102200000000000000E1F505FFFFFFFFAAAAAAAA4F
:10221000000000000000000030000010300000103E
:10222000380000103800001040000010400000107E
:10223000480000104800001050000010500000102E
:1022400058000010580000106000001060000010DE
:10225000680000106800001070000010700000108E
:10226000780000107800001080000010800000103E
:1022700088000010880000109000001090000010EE
:102280009800001098000010A0000010A00000109E
:10229000A8000010A8000010B0000010B00000104E
:1022A000B8000010B8000010C0000010C0000010FE
:1022B000C8000010C8000010D0000010D0000010AE
:1022C000D8000010D8000010E0000010E00000105E
:1022D000E8000010E8000010F0000010F00000100E
:1022E000F8000010F80000100001001000010010BC
:1022F000080100100801001010010010100100106A
:102300001801001018010010200100102001001019
:1023100028010010280100103001001030010010C9
:102320003801001038010010400100104001001079
:102330004801001048010010500100105001001029
:1023400058010010580100106001001060010010D9
:102350006801001068010010700100107001001089
:102360007801001078010010800100108001001039
:1023700088010010880100109001001090010010E9
:102380009801001098010010A0010010A001001099
:10239000A8010010A8010010B0010010B001001049
:1023A000B8010010B8010010C0010010C0010010F9
:1023B000C8010010C8010010D0010010D0010010A9
:1023C000D8010010D8010010E0010010E001001059
:1023D000E8010010E8010010F0010010F001001009
:1023E000F8010010F80100100002001000020010B7
:1023F0000802001008020010100200101002001065
:102400001802001018020010200200102002001014
:1024100028020010280200103002001030020010C4
:102420003802001038020010400200104002001074
:102430004802001048020010500200105002001024
:1024400058020010580200106002001060020010D4
:102450006802001068020010700200107002001084
:102460007802001078020010800200108002001034
:1024700088020010880200109002001090020010E4
:102480009802001098020010A0020010A002001094
:10249000A8020010A8020010B0020010B002001044
:1024A000B8020010B8020010C0020010C0020010F4
:1024B000C8020010C8020010D0020010D0020010A4
:1024C000D8020010D8020010E0020010E002001054
:1024D000E8020010E8020010F0020010F002001004
:1024E000F8020010F80200100003001000030010B2
:1024F0000803001008030010100300101003001060
:10250000180300101803001020030010200300100F
:1025100028030010280300103003001030030010BF
:10252000380300103803001040030010400300106F
:10253000480300104803001050030010500300101F
:1025400058030010580300106003001060030010CF
:10255000680300106803001070030010700300107F
:10256000780300107803001080030010800300102F
:1025700088030010880300109003001090030010DF
:102580009803001098030010A0030010A00300108F
:10259000A8030010A8030010B0030010B00300103F
:1025A000B8030010B8030010C0030010C0030010EF
:1025B000C8030010C8030010D0030010D00300109F
:1025C000D8030010D8030010E0030010E00300104F
:1025D000E8030010E8030010F0030010F0030010FF
:1025E000F8030010F80300100004001000040010AD
:1025F000080400100804001010040010100400105B
:10260000180400101804001020040010200400100A
:10261000280400102804001000000200FFFFFFFF44
:10262000000000002C07001094070010FC070010A9
:10263000000000000000000000000000000000009A
:10264000000000000000000000000000000000008A
:10265000000000000000000000000000000000007A
:10266000000000000000000000000000000000006A
:10267000000000000000000000000000000000005A
:10268000000000000000000000000000000000004A
:10269000000000000000000000000000000000003A
:1026A000000000000000000000000000000000002A
:1026B000000000000000000000000000000000001A
:1026C0000000000000000000010000000000000009
:1026D0000E33CDAB34126DE6ECDE05000B000000CE
:1026E00000000000000000000000000000000000EA
:1026F00000000000000000000000000000000000DA
:1027000000000000000000000000000000000000C9
:1027100000000000000000000000000000000000B9
:0C2A400000000000000000004004001036
:040000030000017187
:00000001FF
